:020000040800F2
:10000000B08A01206D020008694E00080939000815
:10001000894C0008490C00085562000800000000E7
:10002000000000000000000000000000AD0100081A
:10003000B9110008000000000902000897570008E5
:10004000870200088702000887020008C1510008E3
:10005000870200088702000887020008870200085C
:100060004913000887020008591300088702000896
:10007000870200088702000887020008870200083C
:1000800087020008870200088702000800000000BD
:100090000000000000000000000000005F130008E6
:1000A00087020008555800088702000887020008E8
:1000B00087020008870200088702000887020008FC
:1000C00087020008870200088702000887020008EC
:1000D000870200081562000887020008000000007F
:1000E000391300088702000887020008000000009A
:1000F000000000000000000000000000870200086F
:10010000000000008702000887020008870200083C
:1001100000000000000000000000000000000000DF
:1001200087020008870200084510000887020008BF
:10013000870200080000000000000000000000002E
:10014000000000000000000000000000870200081E
:1001500051100008870200085D100008870200089F
:10016000870200088702000800000000000000006D
:10017000000000000000000000000000000000007F
:1001800000000000870200080000000000000000DE
:100190008702000887020008DFF80CD000F02EFB71
:1001A0000048004731780208B08A01202C4B1968BA
:1001B0000868B0E8F04F80F30988BFF36F8F4FF005
:1001C000000080F3118870470000000008480068B4
:1001D000006880F308884FF0000080F3148862B64E
:1001E00061B6BFF34F8FBFF36F8F00DF00BF00BF5B
:1001F00008ED00E0DFF80C00016841F470010160D7
:10020000704700BF88ED00E0EFF30980BFF36F8F08
:10021000134B1A681EF0100F08BF20ED108A20E95A
:10022000F04F106009B44FF0500080F31188BFF315
:100230004F8FBFF36F8F31F065F94FF0000080F3FF
:10024000118809BC19680868B0E8F04F1EF0100F5B
:1002500008BFB0EC108A80F30988BFF36F8F704736
:1002600024000020EFF30580704700000648804717
:1002700006480047FEE7FEE7FEE7FEE7FEE7FEE78B
:10028000FEE7FEE7FEE7FEE7455800089901000893
:100290002DE9F05F0546002092469B4688460646BB
:1002A000814640241BE0284641464746224600F04E
:1002B000EDF953465A46C01A914110D311461846DB
:1002C000224600F0D4F92D1A67EB01084F4622466A
:1002D0000120002100F0CBF917EB00094E41201E50
:1002E000A4F10104DFDC484631462A464346BDE816
:1002F000F09F10B5431A934209D28318881803E07F
:1003000010F8011D03F8011D521EF9D210BD40EA7C
:1003100001039B0703D009E008C9121F08C0042A83
:10032000FAD203E011F8013B00F8013B521EF9D26A
:1003300010BDD2B201E000F8012B491EFBD270477C
:100340000022F6E710B513460A4604461946FFF7A1
:10035000F0FF204610BD421E12F8013F002BFBD1DA
:1003600011F8013B02F8013B002BF9D17047421C08
:1003700010F8011B0029FBD1801A704710B500222C
:1003800000E0521C835C8C5CA34201D1002BF8D1AD
:10039000D8B2E1B2401A10BD30B504460020034681
:1003A00000E05B1C934203D2E05CCD5C401BF8D0C4
:1003B00030BD034611F8012B00F8012B002AF9D1BA
:1003C000184670472DE9FE4F804681EA0300C00FB2
:1003D0000C46009021F0004123F00045B8EB0200EC
:1003E000A94105D24046214690461C460B4602468E
:1003F00023F00040104347D0270DC7F30A00C3F392
:100400000A510290401A019040286BDAC3F313009E
:1004100040F4801B0098924620B10023D2EB030ADF
:1004200063EB0B0B01985946C0F14002504600F0B7
:100430001EF906460D4650465946019A00F036F917
:1004400010EB08006141002487EA115284EAE77347
:100450001A4340D0009A62B3019A012A4FEA075228
:1004600015DC001B61EB02014FF0004202EA07526B
:10047000CDE90042001C41F5801132462B4600F0C8
:100480006DF903B0BDE8F08F40462146F9E7001B47
:1004900061EB0201001C41F5801300185B4120183C
:1004A000A2F5001747EB030140EAD570B6196D417C
:1004B00011E06D084FEA360645EAC0754FEA07526B
:1004C000001B61EB0201001C41F5801149084FEA55
:1004D00030000019514132462B4603B0BDE8F04FC1
:1004E00000F02DB90098012240000023D0EB020259
:1004F00063EBE073009821464FEAE074B8EB00002C
:1005000061EB0401E9E783F000435BE781F0004120
:1005100058E72DE9FE4F81EA030404F0004421F07E
:10052000004100944FF0000B23F0004350EA010417
:100530005ED052EA03045BD0C3F30A54C1F30A55F8
:100540002C44A4F2F3340194A0FB0254C1F3130130
:1005500041F48011C3F3130343F4801301FB0244FD
:1005600000FB034E840A970A44EA815447EA835702
:10057000A4FB076802958D0A05FB07854FEA932CBB
:1005800004FB0C542705029D4FEA065847EA16372C
:10059000B5EB08056EEB070C870E920E47EA811744
:1005A00042EA8312A7FB0201B6EB0B0164EB0004E5
:1005B0002B0D43EA0C335E1844EB1C50DA465146CF
:1005C000E7FB0201C5F313044FEA0B3343EA14536C
:1005D0004FEA0432019C43EA0603A4F10C0402949E
:1005E000009CCDE900B400F0B9F803B0BDE8F08F8D
:1005F00000200146F9E70EB540F233410291002197
:10060000CDE900110A460B4600F0A8F803B000BD82
:1006100000F0004230F000400AD0C10D01F56071D9
:10062000C0F3160042EA0151C20840071143704767
:1006300000200146704701F0004330B421F0004132
:1006400050EA010206D00A0DA2F56072C1F313014F
:10065000002A02DC30BC00207047440F44EAC10489
:10066000C100E01830BC00EBC25000F031B8202AC5
:1006700004DB203A00FA02F1002070479140C2F1F9
:10068000200320FA03F3194390407047202A04DB2B
:10069000203A21FA02F00021704721FA02F3D040FB
:1006A000C2F120029140084319467047202A06DB18
:1006B000CB17203A41FA02F043EAE07306E041FA30
:1006C00002F3D040C2F1200291400843194670471E
:1006D0000029A8BF7047401C490008BF20F0010056
:1006E000704710B4B0FA80FC00FA0CF050EA010434
:1006F00004BF10BC704749B1CCF1200421FA04F4C6
:1007000011FA0CF118BF012121430843A3EB0C019E
:10071000CB1D4FEA00614FEA102042BF002010BC01
:10072000704700EBC35010440029A4BF10BC7047B1
:10073000401C490008BF20F0010010BC704710B5F4
:10074000141E73F1000408DA401C41F100019218F4
:100750005B411A4301D120F0010010BD2DE9F04D9D
:1007600092469B4611B1B1FA81F202E0B0FA80F2F2
:1007700020329046FFF77BFF04460F4640EA0A000E
:1007800041EA0B0153465A46084313D0114653EA37
:10079000010019D0C8F140025046FFF777FF054627
:1007A0000E46504659464246FFF761FF084305D0C2
:1007B000012004E020463946BDE8F08D00200543C5
:1007C00046EAE0762C4337430A986305E40AA0EB37
:1007D00008000022FD0A44EA47540A3002D50020EE
:1007E0000146E9E7010510196941DDE908450019ED
:1007F0006941BDE8F04DA2E700207047064C074D67
:1008000006E0E06840F0010394E8070098471034E0
:10081000AC42F6D3FFF7C4FCE43F060804400608E8
:1008200070B58C1810F8015B15F0070301D110F8B2
:10083000013B2A1106D110F8012B03E010F8016BDF
:1008400001F8016B5B1EF9D12B0705D40023521E62
:100850000DD401F8013BFAE710F8013BCB1A921CCA
:1008600003E013F8015B01F8015B521EF9D5A142C8
:10087000D8D3002070BD0000464910B54A6822F464
:1008800040324A604A6843681A434A6001684A68CD
:1008900022F480724A6001684A68036942EA0322CE
:1008A0004A6001684A6822F040724A6001684A68FA
:1008B00083681A434A6001688A6822F400628A6089
:1008C00001688A68C3681A438A60816A6FF070623F
:1008D000D14201688A6822F070628A6001688A6881
:1008E0000CD0836A1A438A6001688A6822F04052F9
:1008F0008A6001688A68C36A1A4301E022F04052A4
:100900008A6001688A6822F002028A6001688A6847
:10091000037E42EA43028A6090F8201000290168B1
:100920004A680FD042F400624A6001684A6822F4C3
:1009300060424A6001684A68174C436A04EB4333DB
:100940001A4301E022F400624A600168CA6A22F494
:100950007002CA620168CA6A838B104C04EB0353AD
:100960001A43CA6201688A6822F400728A600168C8
:100970008A6890F8303042EA43228A6001688A68C7
:1009800022F480628A6001688A68406942EA8020B5
:10099000886010BD0023014000E0FFFF0000F0FF71
:1009A000094808B5016841F002010160006800F0E3
:1009B00002000090054803F031F928200AF05CF8A5
:1009C00000F0AAF8002008BD30380240C80000201E
:1009D0002DE9F05F82468B46052400254C4803F044
:1009E000BBF970214A4803F073F9494803F0F2F962
:1009F000AC21474803F06CF9454803F0EBF933218B
:100A0000434803F065F9424803F0E4F90021404807
:100A100003F05EF93E4803F0DDF93D4803F0BBF911
:100A200050200AF029F806E005200AF025F8641E97
:100A3000E4B200F071F800F06FF8C00702D0002CAB
:100A4000F2D162E0002C60D0314803F085F97121C9
:100A50002F4803F03DF92E4803F0BCF92C4803F071
:100A6000F7F82B4803F01BF9294803F0F1F8814609
:100A7000274803F014F9264803F0EAF88046244892
:100A800003F00DF9224803F0E3F80746204803F08D
:100A900006F91F4803F0DCF806461D4803F0FFF88E
:100AA0001B4803F0D5F80446194803F03DF91848EF
:100AB00003F071F945EA090548EA052147EA0121F1
:100AC00008094FF47A714843000D00EE100A380708
:100AD00046EA1051F8EE400AB2EE040A44EA012058
:100AE0004FF4FA6180EE801A48430A4901EB105036
:100AF00000EE900A0020F8EE600A8AED001A80EEFF
:100B0000801A8BED001ABDE8F09F0120FBE7000082
:100B1000C80000200CFEFFFF10B50B4803F01CF9C5
:100B20007121094803F0D4F8074803F053F9064847
:100B300003F08EF80446044803F0F6F8024803F088
:100B40002AF9204610BD0000C800002010B504F0AE
:100B50005BFA9FED091AF0EE400A80EE810ADFEDA4
:100B6000070A05F047FDF7EE000A30EEC00ADFED98
:100B7000040A20EE200A10BD80E6C54701DE423E91
:100B8000002A2D47064882B0016841F0010101604A
:100B9000006800F001000090024802B003F03EB887
:100BA00030380240BC00002008B50B4600920246D7
:100BB0005021024803F038F908BD0000BC000020B5
:100BC00008B50B46009202465021024803F09EF9F8
:100BD00008BD0000BC00002070B500252C4615485B
:100BE00000F052FD0521134800F0F8FC114800F018
:100BF00097FC05440F4800F0ADFD012009F03CFFD3
:100C0000641CE4B2082CEAD3E8084000FFF7F3FCC8
:100C10009FED091B53EC112BFFF77BFC9FED081B8D
:100C200053EC112BFFF775FCFFF705FD00EE100AE2
:100C300070BD00004C0800206666666666660A4065
:100C4000000000000000303FFEE7000030B587B034
:100C500014216846FFF774FB1348016841F0020154
:100C60000160016801F002010591016841F0010194
:100C7000016000684FF4004400F00100059001207D
:100C8000CDE9004002900320084D039069462846B4
:100C900000F06CFF01222146284601F064F8044868
:100CA00002F0BCFF07B030BD303802400000024007
:100CB000B0000020022000F023B800001CB501A8FD
:100CC00000900423032215210C4803F0ADF89DF891
:100CD00004109DF8050001F00F0140EA01210748CA
:100CE000083801609DF807109DF806200F3102F0CA
:100CF0000F0241EA022141601CBD0000B00000204B
:100D000002461521014803F0D3B80000B0000020CE
:100D10000B4602461521014803F02CB9B000002013
:100D200070B50A4D4FF4004400222146284601F0D8
:100D30001AF80A2000F0FAFE01222146284601F0A6
:100D400012F8BDE87040642000F0F0BE00000240E0
:100D50000321E520FFF7DCBFFFF7E2BF70B50546D2
:100D60001BF0E5F8044628461BF026F91C2C0BD195
:100D70000648D0F8A40015F0B5FE0549C0B20870C9
:100D8000BDE8704003F0E8BB70BD000034070020F0
:100D90000D06002038B51BF0CAF808281FD123F033
:100DA00080FC20F063F80E4C41690125A9B98069E7
:100DB00098B994F80C01012802D120462CF00CFEC1
:100DC000009500231A460321D4F8080123F070FC93
:100DD000044A0023044830F093F984F8745038BD75
:100DE00034070020D9D902086054002038B51BF020
:100DF0009EF808281FD123F054FC20F037F80E4C41
:100E000041690125A9B9806998B994F8F0000128D1
:100E100002D120462CF01CFF009500231A46032126
:100E2000D4F8EC0023F044FC044A0023044830F0DA
:100E300067F984F8745038BD3407002051DC02088B
:100E40006054002038B51BF072F808281FD123F039
:100E500028FC20F00BF80E4C41690125A9B98069E6
:100E600098B994F8E400012802D120462DF062F9E7
:100E7000009500231A460321D4F8E00023F018FC63
:100E8000044A0023044830F03BF984F8745038BD1C
:100E900034070020D9D902086054002010B51BF097
:100EA00046F807280BD10648D0F8C40023F004FB0D
:100EB0000449C0B208700449085C0449087010BDB8
:100EC000340700209C0300207038060888010020A9
:100ED00010B51BF02CF807280ED10848D0F8C00038
:100EE00023F0EAFA0749C0B2054A095C06A051702E
:100EF000BDE8104005F086BA10BD000034070020A0
:100F00009C0300207638060875695F5454696D6546
:100F100053656C65637465643D25640070B5054672
:100F20001BF005F8044628461BF046F81C2C09D196
:100F300005480121D0F8C80021F027F9034900B184
:100F40000120087070BD0000340700208D010020D2
:100F50001AF0EDBF08B5DFF898800024254D264E25
:100F600001274FF4FA79287800283CD023A005F017
:100F700049FA2748048000F05FF8D8B125A005F0B1
:100F800041FA274890F8301000EBC10050E90213F5
:100F900081EA08016340194325D017482AF090FFE1
:100FA000009700231A460321D6F8CC0023F080FBDB
:100FB000424614E000F040F8A8B91AA005F022FA61
:100FC0002C700D482BF076F9009700231A46032168
:100FD000306823F06DFB124830F082F8154A002388
:100FE0000F4830F08DF8484627F046FFBBE7000079
:100FF000C1BE02081200002034070020486172645C
:10100000496E745F43686172675F666C6167000078
:101010008A01002063686F6E67206461696E00005A
:101020006054002062752063686F6E672064616998
:101030006E000000B5C202080421014800F086BE1F
:1010400000000240014800F0FFBB00000C09002036
:10105000014800F0F9BB0000F8090020014800F049
:10106000F3BB0000580A002001681823CAB2103AE6
:10107000B2FBF3F2054B6FF30901032A9B5CC365D6
:1010800000D9091D8165084670470000F822030851
:1010900010B5014600208B698A6A4FF0C07453B1C5
:1010A000B3F5005F15D072B1012A0CD0022A0AD024
:1010B000032A09D104E01AB1012A06D0022A03D179
:1010C000C96AC90100D5012010BDC96AA142FAD080
:1010D00010BD002AF7D0012AF2D0022AF3D0032A49
:1010E000F3D010BD30B50468256825F4802525604F
:1010F000046863608368402B036803D099600068CC
:10110000C26030BD9A600068C16030BD1FB5264E18
:10111000264D00248DF80C400123002203A93068DD
:1011200027F0E6FED8BB22480222102100788DF875
:101130000000684604F07FFA002201A91D4801F072
:10114000FFFA03222021684604F062FA9DF80000AD
:101150009DF8061088420DD0287810B9002009F0BB
:1011600083FE9DF806008DF800008DF802408DF892
:1011700001400FE00294287810B902A809F01FFE80
:101180009DF8061002988DF800108DF80200000AF4
:101190008DF8010003222021684604F04CFA6420F7
:1011A00027F06AFEB6E7000080010020030000205F
:1011B0008D01002094080020704708B50A2009F02E
:1011C0005BFC6A4602210020FFF7EEFC9DF8000060
:1011D000552803D19DF80100AA2821D055208DF86B
:1011E0000000AA208DF801000A2009F045FC6A469B
:1011F00002210020FFF7E4FC002000900A2009F003
:101200003BFC6A4602210020FFF7CEFC9DF800005F
:10121000552803D19DF80100AA2801D0012008BD5E
:10122000002008BDFFF7AEBC10B5292000F00CF877
:101230004FF6FF7101EA0024282000F005F8204352
:1012400010BD0020AFF3008002462421014802F0C7
:101250002FBE0000300100200B4602462421014829
:1012600002F088BE3001002010B5052404E064209F
:1012700000F05CFC641EE4B2FFF7E3FF362802D006
:10128000002CF4D106E02CB100210120FFF7E4FF8F
:10129000002010BD012010BD10B5052404E064201D
:1012A00000F044FC641EE4B2FFF7CBFF362802D006
:1012B000002CF4D106E02CB108210120FFF7CCFF6F
:1012C000002010BD012010BD38B519480524016863
:1012D00041F002010160006800F002000090154832
:1012E00002F09CFC04E0642000F020FC641EE4B2E8
:1012F000FFF7A7FF362802D0002CF4D116E0ACB1DE
:1013000000210120FFF7A8FF00210820FFF7A4FF1C
:101310007F210A20FFF7A0FF47210D20FFF79CFF48
:1013200000210E20FFF798FF002038BD012038BDB6
:10133000303802403001002002490120487000038B
:1013400000F008BC10000020024901208870042031
:1013500000F000BC10000020102000F0FBBB20209B
:1013600000F0F8BB72B6FEE770B5022004F044F856
:101370000546012004F040F80446002004F03CF843
:1013800044EA002145EA0120010201D540F07F40F6
:1013900070BD70B5052004F02FF80546042004F058
:1013A0002BF80446032004F027F844EA002145EA1C
:1013B0000120010201D540F07F4070BD78B50024C6
:1013C000009490F83C20012A19D0012280F83C209A
:1013D0000A6807230568092A13D9EE680A3A02EB5E
:1013E000420293409E43EE600B788A680A3B03EB0F
:1013F00043039A400368DD682A43DA6010E0022064
:1014000078BD2E6902EB420293409E432E610B7819
:101410008A6803EB43039A4003681D692A431A61F3
:101420004A681F23072A13D205686E6B521E02EB0F
:10143000820293409E436E630A8893B20A79521ED9
:1014400002EB820293400268556B2B43536327E003
:1014500005680D2A12D22E6BD21F02EB8202934036
:101460009E432E630B790A88DB1F92B203EB830342
:101470009A4003681D6B2A431A6311E0EE6A0D3A25
:1014800002EB820293409E43EE620B790A880D3B89
:1014900092B203EB83039A400368DD6A2A43DA625F
:1014A0001B4B0568194A9D420AD10D68122D07D1C0
:1014B000556825F400055560556845F4800555606C
:1014C00005689D421DD1134D0B68AB4201D0112B15
:1014D00017D1536823F480035360536843F4000327
:1014E00053600968A9420CD10B490C4A0968B1FB49
:1014F000F2F101EB8101490000E0491E0091002951
:10150000FBD180F83C40002078BD00000023014062
:1015100000200140120000102000002040420F0077
:101520000068C06C704770B504004FF0000503D030
:10153000206C002610B107E0012070BD204600F0AD
:101540001DF8666484F83C60206CC00610D4206CE2
:1015500020F4885040F0020020642046FFF78CF908
:101560006664206C20F0020040F00100206400E07E
:10157000012584F83C60284670BD000010B586B097
:10158000044614216846FEF7DBFE114920688842B4
:101590001CD110480021026842F480720260006889
:1015A00000F4807005900B481438026842F0010284
:1015B0000260006800F00100059002200090032006
:1015C000CDE901016946044800F0D0FA06B010BD2B
:1015D0000020014044380240000002402DE9F04163
:1015E000044600680D4681684FF0000749050BD599
:1015F0008068C00508D5206C40F02000206484F885
:101600003C700120BDE8F08100F0B2FB064613E01B
:10161000681C11D025B100F0ABFB801BA8420BD990
:1016200020680068800707D4206C40F00400206424
:1016300084F83C700320E5E7206800688007E7D560
:1016400021686FF012000860206C40F40070206484
:101650002068816811F0405F13D1217E89B9C16A89
:1016600011F4700F02D0806840050AD4206C20F479
:1016700080702064206CC00403D4206C40F0010012
:1016800020640020BEE7000018B50021009190F80A
:101690003C20012A07D0012280F83C200268936890
:1016A000DB0702D011E0022018BD936843F001036C
:1016B0009360244A244B1268B2FBF3F202EB42021D
:1016C00000E0521E0092002AFBD102689368DB07FB
:1016D0002ED0036C40F20164A34343F4807303648F
:1016E00053685B0505D5036C23F4005343F4805322
:1016F0000364036CDB0404D5436C23F006034364EA
:1017000000E0416480F83C1010496FF02203136040
:1017100049680068C90602D00D49884210D1816825
:1017200011F0405F0CD1816841F08041816007E099
:10173000016C41F010010164416C41F00101416410
:10174000002018BD2000002040420F00002301406F
:101750000020014090F83C1001290CD0012180F8B4
:101760003C1001688A6822F001028A600168896879
:10177000C90702D007E002207047016C21F48851AC
:1017800041F001010164002180F83C1008467047D7
:101790002DE9F0410446876D00F0EAFA064694F818
:1017A00035000025022806D08020606584F834507A
:1017B0000120BDE8F0812068016821F01601016078
:1017C0002068416921F080014161206C08B9A06C5A
:1017D00020B12068016821F00801016020680168DB
:1017E00021F0010101600CE000F0C2FA801B052825
:1017F00007D920206065032084F8350084F8345030
:10180000D7E720680068C007EED194F85C103F204D
:101810008840B860012084F8350084F834500020F6
:10182000C7E790F83510022903D0802141650120D7
:101830007047052180F835100068016821F001012A
:1018400001600020704700002DE9F84304464FF086
:101850000009CDF8009063484FF41651A56D00685B
:10186000B0FBF1F72E6894F85C10082000FA01F143
:1018700031420FD021680A6852070BD50A6822F05E
:1018800004020A6094F85C108840A860606D40F023
:101890000100606594F85C104FF0010808FA01F04F
:1018A000304208D021684969090604D5A860606DF6
:1018B00040F00200606594F85C10042088403042DB
:1018C00008D021680968890704D5A860606D40F0D8
:1018D0000400606594F85C1010208840304218D0F5
:1018E00021680968090714D5A860206801684903C0
:1018F00004D50068000308D5A16C07E00168C9059C
:1019000003D4016821F008010160216C09B120466F
:10191000884794F85C1020208840304231D02168FC
:101920000968C9062DD5A86094F8350005282068F7
:10193000016806D0490347D5006800031DD4616CD7
:101940001CE021F0160101602068416921F080014E
:101950004161206C08B9A06C20B12068016821F0B9
:101960000801016094F85C103F208840A86084F86A
:10197000358084F83490216D1FE0E16B09B1204679
:101980008847606D00282BD0606DC00714D00520FB
:1019900084F835002068016821F001010160009899
:1019A000401C0090B84203D820680068C007F6D1F8
:1019B00084F8358084F83490E16C002910D001B0AF
:1019C0002046BDE8F04308470168C905D5D4016841
:1019D00021F01001016084F8358084F83490CCE760
:1019E000BDE8F883200000202DE9F041044600F016
:1019F000BFF906465CB1022084F83500002584F862
:101A000034502068016821F0010101600DE00120DF
:101A1000BDE8F08100F0ACF9801B052805D9202035
:101A20006065032084F83500F2E720680068C0078D
:101A3000F0D12268116820480140D4E9010318431D
:101A4000D4E903363343184363691843A369184341
:101A5000E3691843236A18430843616A042903D1E0
:101A6000D4E90B1319430843106020684069666A83
:101A700020F0070130460E43012704280CD1A06A4C
:101A80000643E06A40B12046FFF702FB20B1402048
:101A9000606584F83570BAE7206846612046FFF734
:101AA000E3FA94F85C203F2191408160656584F8F9
:101AB00035700020ACE700003F8010F02DE9F041C8
:101AC0000446866D90F83400002501280DD00120D1
:101AD00084F8340094F835700020012F07D084F882
:101AE000340002252846BDE8F0810220FBE70227EA
:101AF00084F8357060652046FFF7F4FA94F85C10BE
:101B00003F208840B0602068016841F01601016004
:101B1000206C20B12068016841F008010160206854
:101B2000016841F001010160DCE7000070B5044686
:101B300000F01EF90546601C02D0044800780444F9
:101B400000F016F9401BA042FAD370BD140000202B
:101B500070470000044910B50A68024202D00860CC
:101B6000FFF7F6FF10BD0000143C01402DE9F84FCF
:101B7000DFF8B8A10022012403254FF00F090AF174
:101B8000040BAAF1040E00BF0B6804FA02F63340FE
:101B9000B34273D10F7907F00307012F01D0022F51
:101BA00016D187684FEA420805FA08FC27EA0C07B5
:101BB000D1F80CC00CFA08FC4CEA070CC0F808C0BD
:101BC0004768B7430E79C6F3001696403E43466019
:101BD0000E79F643B6070DD0C768560005FA06FC25
:101BE00027EA0C07D1F808C00CFA06FC4CEA070CEF
:101BF000C0F80CC00E7906F00306022E10D1D608EC
:101C000000EB8608D8F8206057074FEAD76C09FA2E
:101C10000CF7BE430F6907FA0CF73743C8F820707A
:101C200006684FEA420C05FA0CF7BE430F7907F03D
:101C3000030707FA0CF7374307604E6816F4403F76
:101C40006DD03B4E376847F480473760366822F0E6
:101C5000030706F480460096364E07EB060CDCF8C8
:101C6000086897073F0F09FA07F826EA0806DFF821
:101C7000C880404503D14FF000081EE04FE0DFF878
:101C8000BC80404502D14FF0010816E0DFF8B0807B
:101C9000404502D14FF002080FE0DFF8A880404530
:101CA00002D14FF0030808E0DFF89C80404502D1E4
:101CB0004FF0040801E04FF0070808FA07F848EA77
:101CC0000608CCF80888DAF800605746D1F804C056
:101CD0009E435FEACC2C00D51E433E60DBF80060DB
:101CE0005F46D1F804C09E435FEA8C2C00D51E43AA
:101CF0003E60DEF800607746D1F804C09E435FEA9C
:101D00008C3C00D51E433E60084F083F3E68D1F82A
:101D100004C09E435FEACC3C00D51E433E60521C8B
:101D2000102AFFF431AFBDE8F88F0000083C0140F5
:101D300044380240003001400000024000040240EC
:101D400000080240000C02400010024000690840F8
:101D500000D001207047426921EA02030A4043EAA9
:101D60000241816170470AB1816170470904FBE754
:101D70000148806870470000140000200248816814
:101D80000278114481607047140000200B4810B5A0
:101D9000016841F400710160016841F480610160F3
:101DA000016841F480710160032000F099F80F2070
:101DB00000F006F800F04AF8002010BD003C024098
:101DC00030B505461C4887B00024016841F0010188
:101DD0000160006806A900F00100009001A800F071
:101DE000F1F900F01FFA1549154AB0FBF1F1154859
:101DF000491E026040F2E732C0E90324C0E9011441
:101E0000846101F04FF8040012D10E4801F078F817
:101E100004000DD1192000F035F8102D07D2002252
:101E20002946192000F03CF80748056000E001242D
:101E300007B0204630BD00004438024040420F0049
:101E400000000140D40A0020180000200C4882B095
:101E5000016841F480410160006800F48040009016
:101E60000748001F016841F08051016000680022AE
:101E700000F0805000900F21901E02B000F010B8CA
:101E800044380240002809DB00F01F020121914084
:101E90004009800000F1E020C0F800117047000008
:101EA000F0B40E4B1B680C46C3F30223C3F10705C5
:101EB000042D00D90425191D072901D2002300E0B3
:101EC000DB1E012606FA05F1491E214099409E407D
:101ED000761E16403143F0BC04F0CBBA0CED00E0A6
:101EE000064900F0070208684FF6FF03184040EA71
:101EF0000220034A10430860704700000CED00E028
:101F00000000FA050B4A136823F003030343136030
:101F10000948026842F004020260012907D040BF6C
:101F200020BF20BF016821F004010160704730BF6D
:101F3000F8E700000070004010ED00E02DE9F843E4
:101F4000044600684FF00109C1074FF0000601D1B7
:101F5000400729D5DFF82081C8F86860FFF708FF3F
:101F60000746464D05E000BFFFF702FFC01B0228F1
:101F700059D828680001F7D4A068217B800140EA85
:101F80000170616808433D4984310860C8F8689071
:101F9000FFF7EEFE074604E0FFF7EAFEC01B02284B
:101FA00041D828680001F7D52078800752D53348FA
:101FB0004030016841F0805101600068304D00F010
:101FC00080500090286840F480702860FFF7D0FEB1
:101FD000074604E0FFF7CCFEC01B022823D8286880
:101FE000C005F7D5254D7035286810F4407020D015
:101FF000218A01F4407181421BD02868214920F4D4
:102000004070C1F800900E6028602868C00710D0AA
:10201000FFF7AEFE064641F2883707E0FFF7A8FE5D
:10202000801BB84202D90320BDE8F88328688007E6
:10203000F4D521691148C1F301220830032A12D0D6
:10204000016821F4F81101602868218AC1F30B01AD
:10205000084328602078000703D50B49207DC1F88C
:10206000E0010020E0E70268084B22F4F812194072
:102070000A430260E8E700000000474200380240DF
:1020800000700040400E474200104742FFFCFF0F27
:102090002DE9F0470E46050065D0DFF81481D8F829
:1020A0000000F7B200F00700B04207D288F80070D5
:1020B000D8F8000000F00700B04254D128683D4C29
:1020C000810712D5400703D5206840F4E050206016
:1020D0002878000703D5206840F46040206020681D
:1020E000A96820F0F000084320602878C0072DD0B0
:1020F000304968680839012812D0022813D0032813
:1021000011D00968890700292DDA216821F003011F
:1021100001432160FFF72CFE814641F2883A0EE030
:1021200009688903EFE709688901ECE7FFF720FEFA
:10213000A0EB0901514502D90320BDE8F0872068D2
:10214000696800F00C00B0EB810FEFD1D8F80010F7
:10215000404601F00701B14207D90770006800F05E
:102160000700B04201D00120E7E72878400705D5F5
:102170002068E96820F4E0500843206028780007D0
:1021800006D52068296920F4604040EAC10020603B
:1021900000F058F82168084AC1F30311515CC840A7
:1021A0000649086006480068FFF70AFE0020C4E7F9
:1021B000003C0240083802400023030820000020B1
:1021C000180000200F2202600C4A136803F003037A
:1021D0004360136803F0F0038360136803F4E05373
:1021E000C36012684FF4E05303EAD202026104486C
:1021F000006800F0070008607047000008380240DF
:10220000003C02400448054900680968044AC1F3DB
:102210008221515CC84070472000002008380240ED
:10222000102303080448054900680968044AC1F3FB
:102230004231515CC84070472000002008380240FD
:1022400010230308154810B5006810F00C0214485C
:1022500013D01449042A0FD0082A0ED10F4C241F82
:102260002268236802F03F025B0207D52068C0F3B2
:102270008810A0FB010106E0084610BD2168C1F3EB
:102280008811A1FB00010023FEF702F82168C1F3C9
:102290000141491C4900B0FBF1F010BD0838024073
:1022A0000024F40040787D012DE9F84F04006ED041
:1022B0002078DFF84C93C007A9F104054AD009F152
:1022C00004000168C1F38101012908D00068C0F34E
:1022D000810002280AD1D9F80000400206D52868FA
:1022E000800337D560680028E1D033E06068B0F53E
:1022F000803F10D0B0F5A02F286810D020F4803097
:102300002860286820F4802028606068A8B1FFF762
:102310002FFD06460DE0286840F48030F4E740F4D5
:1023200080202860F7E700BFFFF722FD801B6428AC
:1023300073D828688003F7D50CE0FFF719FD06462F
:1023400005E000BFFFF714FD801B6428F0D8286863
:102350008003F7D42078DFF8AC8280074FF0000AC2
:102360003ED5A748001D016811F00C0F08D0006889
:10237000C0F3810002280BD1D9F80000400207D435
:102380002868800716D5E068012800D112E033E103
:10239000E068B8B10120C8F80000FFF7E9FC064684
:1023A00005E000BFFFF7E4FC801B0228C0D82868C6
:1023B0008007F7D52868216920F0F80040EAC100BD
:1023C00028600DE0C8F800A0FFF7D2FC064604E044
:1023D000FFF7CEFC801B02281FD828688007F7D49F
:1023E0002078000722D5864F87486169703771B120
:1023F00001210160FFF7BCFC064604E0FFF7B8FCD2
:10240000801B022809D838688007F7D50EE0C0F88D
:1024100000A0FFF7ADFC064605E082E0FFF7A8FC50
:10242000801B02287DD838688007F7D420784007C1
:1024300068D5DFF8CCB100270BF13C0BDBF80000CE
:10244000C0000BD4DBF8001041F08051CBF8001035
:10245000DBF80000012700F0805000906B4E3068E0
:10246000C00510D4306840F480703060FFF780FC05
:10247000009005E0FFF77CFC0099401A022850D834
:102480003068C005F6D55E4EA0686C3601280FD0C6
:102490000528306810D020F001003060306820F04E
:1024A00004003060A068B8B1FFF762FC00900FE054
:1024B000306840F00100F4E740F004003060F7E7D6
:1024C000FFF756FC0099411A41F28830814266D8E4
:1024D00030688007F4D50EE0FFF74AFC009007E073
:1024E000FFF746FC0099411A41F28830814256D8E4
:1024F00030688007F4D42FB1DBF8001021F0805150
:10250000CBF80010A069C8B33D49091D0968C1F3A3
:10251000810102294AD00228504607D0C8F860003D
:1025200000E03CE0FFF724FC04463BE04746C8F8E7
:102530006000FFF71DFC064605E000BFFFF718FC32
:10254000801B02282BD828688001F7D4D4E9070122
:102550000843A16A2E4A490802EB0141626A41EA36
:102560008211084394F82C1040EA0161C9F8001068
:1025700001203866FFF7FCFB044606E03EE000BFA2
:10258000FFF7F6FB001B022809D828688001F7D561
:1025900034E000BFFFF7ECFB001B022802D9032048
:1025A000BDE8F88F28688001F4D427E00128F7D02F
:1025B000D9F80000E26900F4800191421CD1226A3E
:1025C00000F03F01914217D147F6C071626A0140A5
:1025D000B1EB821F10D1A26A4FF0FF3300F44031FB
:1025E00003EB5202B1EB024F06D194F82C1000F02D
:1025F0007060B0EB016F01D00120D1E70020CFE780
:102600000438024000004742800E474200700040FC
:102610000000FFFF2DE9F8478A4639494FF4FA4C8C
:1026200091460F684FF47A72B7FBFCF15143009169
:10263000017F012962D001250577022141770268D7
:10264000CA21516202685321516201688A684FF0C1
:10265000000352054FF0FF044FF0030608D5009A1F
:10266000B2F10108CDF8008018D3CA685207F6D439
:102670008A6822F480628A600168CA6802F0800277
:1026800062F49062CA60B7FBFCF14FF47A72514376
:1026900000910168009A571E009705D24C62467758
:1026A00003770320BDE8F887CA685207F2D58A6825
:1026B00022F007028A6001688A6842EA09028A6099
:1026C0000268C2F814A00F490A6842F480020A6046
:1026D0000C4908310A6842F480020A6001688A687D
:1026E00042F480428A6001688A6842F480628A60AB
:1026F00001684C62457703770020D3E70220D1E7D9
:1027000020000020003C01407047000010B5044646
:102710000068C068400509D52046FFF7F5FF20682E
:10272000C16801F0800161F49061C16003494FF418
:10273000800008600120607710BD0000143C01405B
:1027400010B500680B4641680D480140080CD87070
:10275000C1F304245C7001F03F049C70C1F342316A
:10276000197052B902F0A6FCD870587802F0A2FC99
:102770005870987802F09EFC9870002010BD000000
:102780003FFFFF0010B50B460168896A5960016878
:102790000969C1F30E019960006801680D480140A4
:1027A000C1F305401870C1F306245C7001F07F048A
:1027B0009C70890DD97052B902F07CFC1870587861
:1027C00002F078FC5870987802F074FC9870002041
:1027D00010BD00007F7F7F0010B5040002D0607F35
:1027E00010B106E0012010BD00202077204600F047
:1027F00039F8022060772168CA2048622168532096
:102800004862204602F06CFC30BB20688168144AA4
:10281000114081602168886862681043D4E904230C
:102820001A43104388602168E068086120680169E4
:10283000228941EA02410161204602F075FC58B943
:1028400021680A6C22F480220A6421680A6CA36958
:102850001A430A64012161772268FF21516210BD89
:10286000BFFF8FFF10B586B0044618216846FDF7FC
:1028700067FD0D492068884214D102200090C001F4
:1028800004906846FFF75AFB08B1FEF76BFD074955
:1028900001200860002205210320FFF701FB03202F
:1028A000FFF7F0FA06B010BD002800403C0E47428A
:1028B00070B50446007F0B46012819D00126267703
:1028C00002206077B2B19878D97840EA014558780B
:1028D0001978000240EA413005432168CA20486265
:1028E000216853204862204602F0FAFBD0B122E072
:1028F000022070BD5878C10603D500F0EF000A3001
:102900005870D87802F0DFFB0204587802F0DBFB45
:1029100042EA0022987802F0D6FB0243187842EA95
:102920004035DAE70748054020684560204602F058
:10293000FBFB00B966772268FF21516200212177F5
:1029400070BD00003FFFFF002DE9F0410446007F0D
:102950000D46012823D04FF0010884F81C80022086
:1029600060772068002780684FEA4060D2B1002875
:1029700000DBEF70A878297840EA01466878E978AA
:10298000000240EA815006432168CA20486221685B
:1029900053204862204602F0A3FBB8B12CE002208D
:1029A000BDE8F081002800DBEF70287802F08BFB97
:1029B0000204687802F087FB42EA0022A87802F05D
:1029C00082FB0243E87842EA8056DDE70D48064084
:1029D000206806602068816821F480218160D5E943
:1029E0000301084321688A6810438860204602F08A
:1029F0009BFB08B984F81D802268FF21516227776C
:102A0000CEE700007F7F7F0070B504460068C16894
:102A100021F0A001C160FFF7ABF905464FF47A76CB
:102A200007E000BFFFF7A4F9401BB04201D9032023
:102A300070BD2068C0688006F4D5002070BD704766
:102A400070B5040009D0606A002540B12561656158
:102A5000A56294F8510040B10CE0012070BD60689F
:102A6000B0F5827FF4D0E561F2E784F8505020465B
:102A700000F044F8022084F851002068016821F039
:102A800040010160A088218900F4827001F40441B2
:102A90000843A18901F400610843217C01F002018F
:102AA0000843217D01F001010843218B01F40071ED
:102AB0000843217F01F03801084394F8201001F009
:102AC00080010843218D01F400510843216808600A
:102AD000A069042101EA104094F8241001F01001CB
:102AE0000843216848602068C16921F40061C16120
:102AF0006565012084F85100002070BD70B586B076
:102B0000064614216846FDF71BFC204930688842C0
:102B10003AD11F480025016841F4805101600068E6
:102B200000F4805005901A481438016841F0020101
:102B300001600068694600F00200059028200090BE
:102B40000220CDE9010503200390052004901148DF
:102B5000FFF70CF8114C104820604FF08060606067
:102B60004020C4E90205000120614000606180004E
:102B7000C4E90605256220466562FEF735FF08B107
:102B8000FEF7F0FBB464A66306B070BD00300140F0
:102B90004438024000040240406402400C09002016
:102BA0002DE9F84F044690F8500000271D461646C0
:102BB000894601280DD04FF0010B84F850B0FFF783
:102BC000D7F8804694F85100BA46012804D002276D
:102BD00093E00220BDE8F88FB9F1000F73D0002E0A
:102BE00071D0032084F85100C4F854A0C4F8309088
:102BF000A686E686C4F838A0A4F83CA0A4F83EA0B7
:102C0000C4F844A0C4F840A0A068B0F5004F09D1B2
:102C10002068016821F0400101602068016841F4EA
:102C20008041016020680168490603D4016841F0D1
:102C300040010160E068B0F5006F606803D030B318
:102C4000012E24D041E008B1012E1CD1206B216857
:102C50000088C86006E020688168890709D5216B73
:102C60000988C160206B801C2063E08E401EE086D6
:102C700009E0FFF77DF8A0EB0800A84202D3681C2A
:102C800001D031E07DB3E08E0028E4D120E0206B5C
:102C900021680078087306E020688168890709D5F3
:102CA000216B09780173206B401C2063E08E401E6D
:102CB000E0860AE0FFF75CF8A0EB0800A84203D327
:102CC000681C02D010E017E06DB1E08E0028E3D15F
:102CD00042462946204602F007FB08B120206065E5
:102CE000A06818B106E0FFE7032706E02068C16886
:102CF00080680090606D00B1012784F851B084F8BD
:102D000050A0384666E700002DE9F041044690F8EF
:102D100050000026012809D0012784F8507094F84B
:102D200051000025012804D002264EE00220BDE813
:102D3000F08189B182B1032084F851006565216377
:102D4000A286E286A56365642564A587E587A068F9
:102D5000B0F5004F02D00BE0012636E02068016894
:102D600021F0400101602068016841F48041016068
:102D7000A16C18480864A16C1748C863A16C174877
:102D8000C864A06C0565E38E2268216B0C32A06CD0
:102D9000FEF794FE38B1606D40F0100060650126CA
:102DA00084F8517011E020680168490603D4016875
:102DB00041F0400101602068416841F0200141601C
:102DC0002068416841F00201416084F8505030466B
:102DD000ADE70000795200088352000857520008FE
:102DE000704770474FF0E0210428086903D020F0B5
:102DF00004000861704740F00400FAE710B5401E77
:102E0000B0F1807F01D3012010BD4FF0E02460615C
:102E10000F21601703F02DFB0020A0610720206127
:102E2000002010BD7047704770B590F83C20012A13
:102E30002CD0012480F83C40022280F83D20036819
:102E40005A689D6822F070060A6832435A60104B37
:102E500002689A420ED0B2F1804F0BD00D4B9A42CD
:102E600008D00D4B9A4205D00C4B9A4202D00C4B25
:102E70009A4204D1496825F080031943916080F893
:102E80003D40002180F83C10084670BD022070BD16
:102E9000000001400004004000080040000C004019
:102EA0000040014010B5040003D094F83D0010B17B
:102EB00007E0012010BD002084F83C00204600F00F
:102EC0001EF8022084F83D00211D206802F0C8FC95
:102ED000012084F8460084F83E0084F83F0084F81E
:102EE000400084F8410084F8420084F8430084F8EC
:102EF000440084F8450084F83D00002010BD704770
:102F000090F83D10012901D001207047022180F87E
:102F10003D100168CA6842F00102CA6000680E49AB
:102F200088420ED0B0F1804F0BD00C49884208D0B7
:102F30000B49884205D00B49884202D00A49884291
:102F400004D1816801F00701062903D0016841F02E
:102F500001010160002070470000014000040040B2
:102F600000080040000C004000400140704770B570
:102F70000446006801694FF00005C943890715D46C
:102F8000C168C943890711D4E91E01610120207776
:102F9000206880698007204602D0FFF7E7FF04E041
:102FA00000F0C0F8204600F065F925772068016937
:102FB000C943490717D4C168C943490713D46FF0FF
:102FC00004010161022020772068806910F4407FAD
:102FD000204602D0FFF7CAFF04E000F0A3F8204625
:102FE00000F048F9257720680169C943090716D41C
:102FF000C168C943090712D46FF0080101610420B8
:1030000020772068C0698007204602D0FFF7AEFF16
:1030100004E000F087F8204600F02CF925772068BE
:103020000169C943C90617D4C168C943C90613D485
:103030006FF010010161082020772068C06910F44A
:10304000407F204602D0FFF791FF04E000F06AF8CD
:10305000204600F00FF9257720680169C943C907A8
:1030600008D1C168C943C90704D1891E016120463E
:1030700000F05AF920680169C943090609D4C168FA
:10308000C943090605D46FF0800101612046FFF7AE
:10309000C9FE20680169C943490609D4C168C9430A
:1030A000490605D46FF040010161204600F046F961
:1030B00020680169C94389060BD4C168C9438906E0
:1030C00007D46FF0200101612046BDE87040FFF792
:1030D000AABE70BD10B586B0044614216846FDF73F
:1030E0002FF90D492068884214D10C48002102684C
:1030F00042F002020260006800F002000590012028
:1031000000900220CDE90101CDE903106946044891
:10311000FEF72CFD06B010BD000400403038024020
:1031200000040240704770B5044690F83C00002649
:103130000D4601280FD0012084F83C006AB1042A12
:103140001DD0082A2FD00C2A3FD00126002084F859
:103150003C00304670BD022070BD206802F0DAFBF2
:103160002068816941F0080181612068816921F04E
:1031700004018161206881692A69114311E0206896
:1031800002F0F0FB2068816941F4006181612068F0
:10319000816921F480618161206881692A6941EA3D
:1031A00002218161D2E7206802F008FC2068C16931
:1031B00041F00801C1612068C16921F00401C161C9
:1031C0002068C1692A69114311E0206802F022FCDD
:1031D0002068C16941F40061C1612068C16921F4BE
:1031E0008061C1612068C1692A6941EA0221C16127
:1031F000ACE710B5040003D094F83D0010B107E02F
:10320000012010BD002084F83C00204600F01EF88C
:10321000022084F83D00211D206802F021FB0120DE
:1032200084F8460084F83E0084F83F0084F84000AB
:1032300084F8410084F8420084F8430084F8440094
:1032400084F8450084F83D00002010BD08B50068F2
:103250000649884208D10648016841F00201016030
:10326000006800F00200009008BD0000000400406B
:10327000403802407047000010B50446022249B1B0
:1032800004290ED0082913D094F84100012816D043
:10329000012010BD94F83E000128F9D184F83E20A9
:1032A0000FE094F83F000128F2D184F83F2008E0B5
:1032B00094F840000128EBD184F8402001E084F824
:1032C00041200122206802F017FB12492068884241
:1032D00003D1426C42F400424264206888420ED01E
:1032E000B0F1804F0BD00C49884208D00B4988427E
:1032F00005D00B49884202D00A49884204D181682E
:1033000001F00701062903D0016841F001010160C5
:10331000002010BD000001400004004000080040F3
:10332000000C00400040014000680349884201D180
:10333000FEF724BD70470000000001407047704751
:1033400010B504460068406994F83D10C0F3C01001
:10335000212911D180B12068143050E8001F21F0DC
:10336000800140E80012002AF5D1606B08B1FEF739
:103370000FFA204602F0D4FD2068406994F83E1010
:10338000C0F38010222911D180B12068143050E898
:10339000001F21F0400140E80012002AF5D1A06B87
:1033A00008B1FEF7F5F9204602F093FD002010BDAC
:1033B00070470000F8B5016804460868CA684B69A0
:1033C00010F00F0F4FF000055AD003F0010602F481
:1033D0009077374365D0C10705D0D10503D5216C5F
:1033E00041F001012164410705D5D90703D0216CC3
:1033F00041F002012164810705D5D90703D0216C72
:1034000041F004012164010707D502F02001314396
:1034100003D0216C41F008012164216C00293BD0CC
:10342000800604D5900602D5204602F087FD20686C
:103430004069216CC0F3801001F00801014320466F
:103440002BD002F046FD20684069400621D5206857
:10345000143050E8001F21F0400140E80012002A1B
:10346000F5D1A06BA8B16C490165A06BFEF7D9F945
:10347000002811D0A06B016D01B0BDE8F0400847F5
:1034800083060ED593060CD52046BDE8F84002F021
:1034900055BD2046FFF78CFFF8BDFFF789FF256477
:1034A000F8BD266B2023012E79D1C60677D5D60626
:1034B00075D50868486800904869400640D5A16BFA
:1034C000086840680004000CEAD0A28D8242E7D967
:1034D000E085C869B0F5807F2DD020680C3050E8B9
:1034E000001F21F4807140E80012002AF5D1206805
:1034F000143050E8001F21F0010140E80012002ABA
:10350000F5D12068143050E8001F21F0400140E858
:103510000012002AF5D184F83E30256320680C3073
:1035200050E8001F21F0100140E80012002AF5D1F8
:10353000A06BFEF72DF9A08DE18D401A81B229E034
:10354000A08DE18D401A81B2E08D0028A8D000291D
:10355000A6D020680C3050E8002F22F4907240E88A
:103560000026002EF5D12068143050E8002F22F0FC
:10357000010240E80026002EF5D184F83E30256394
:1035800020680C3050E8002F22F0100240E80023A1
:10359000002BF5D12046FFF7D2FEF8BDFFE7050668
:1035A0002BD5150629D594F83D002128F5D1A06822
:1035B000B0F5805F01D12069B0B1206A411C216261
:1035C000216800784860E08C401E0004000CE08414
:1035D000E3D12068C16821F08001C1602068C16822
:1035E00041F04001C160D8E7206A0088C0F30800BC
:1035F0004860206A801C2062E5E74006CDD5500671
:10360000CBD5CA68204622F04002CA6084F83D301B
:1036100000F01BF9C1E70000DD5D000870B5040093
:1036200004D094F83D00002510B106E0012070BDE3
:1036300084F83C50204600F023F8242084F83D0014
:103640002068C16821F40051C160204602F0D6FC18
:103650002068016921F4904101612068416921F0ED
:103660002A0141612068C16841F40051C1602564AC
:10367000202084F83D0084F83E00002070BD00004A
:103680002DE9F04186B0064614216846FCF758FE45
:1036900030493068884259D12F480024016841F0F0
:1036A00010010160006800F0100005902A481438ED
:1036B000016841F0010101600068694600F0010005
:1036C00005904FF4C06000900220CDE90104032072
:1036D0000390072004902148FEF748FA214D204826
:1036E0004FF000672860C5E901744FF48068C5E9B0
:1036F00003486C61AC61EC612C6228466C62FEF799
:1037000073F908B1FDF72EFEB563AE63154D14488D
:1037100060353030E5E802074020A5E81101114886
:1037200045F814496030AC61EC612C626C62FEF7C4
:103730005BF908B1FDF716FE75630022052125200F
:10374000AE63FEF7ADFB2520FEF79CFB06B0BDE89F
:10375000F0810000001001404438024000000240A7
:1037600088640240F809002090F83E30202B0ED1EA
:1037700059B152B190F83C30012B08D0012380F8A8
:103780003C300023036302F0BFBC012070470220DD
:1037900070477047704700002DE9F843044690F8E1
:1037A0003D001F4616460D4620284CD1C5B1BEB17E
:1037B00094F83C00012846D0012084F83C004FF0EA
:1037C0000008C4F84080212084F83D00FEF7D0FABC
:1037D000A6848146E684A068B0F5805F03D004E04B
:1037E0000120BDE8F883206928B12E465FF000056E
:1037F00084F83C800EE00026FAE78021204602F0A3
:10380000CDFCA0B9AEB116F8010B21684860E08C80
:10381000401EE084E08C4B464FF0000200970028E9
:10382000EBD14FF04001204602F0B8FC30B103204C
:10383000D7E735F8020BC0F30800E6E7202084F84C
:103840003D000020CDE70220CBE7704770B504466D
:103850000D462B4811F0B3FC10B1294807F030F9A0
:103860002748203011F0ABFC18B12548203007F074
:1038700027F92348403011F0A2FC18B1204840300D
:1038800007F01EF921461E480EF0CEFA1C482946C4
:1038900020300EF0C9FA1A481A4CD0E9032191429F
:1038A0002CD38268914229D34268914226D9426939
:1038B000914223D38269914220D3C06981421DD9AC
:1038C0000F48A11C203002690888131AB3F5D57F70
:1038D00014D3488092B20A80101A4EF6602191FBF0
:1038E000F0F1074840300EF09FFA05484030C169BA
:1038F00021B10721001D00F083F92070207870BDF0
:10390000005400203C010020FEE700001FB5012606
:10391000DFF84C82934DDFF850B2DFF850A200245C
:1039200095F83000002705EBC0004FF0250950E95D
:10393000021281EA0801624011437CD101F096FA3B
:103940008AF80000401E632801D98AF800408848A0
:10395000007830B902A8029407F031FA854902983C
:103960000880FDF799FC8448007870B92DF0C2FDFD
:10397000FDF75AFC81490968FFF768FFC7B239466D
:103980007FA002F03FFD2EF06DFB8148007838BB30
:1039900003A902A8FDF71CF89DED030A7D4910EE6E
:1039A000100A88421CD210EE100A7B49884217DAAE
:1039B000DDED020AF5EEC00AF1EE10FA10DD10EEB0
:1039C000900A764988420BDABDEEC00A744910EEBF
:1039D000100ABDEEE00A0870724910EE100A087075
:1039E0007148007838B9FDF7B1F8BDEEC00A6F49EB
:1039F00010EE100A088095F8300005EBC00151E97F
:103A0000020280EA08006240104365D19AF8002063
:103A100067A1684602F006FD67486946006821F024
:103A200018FA544865A10288684602F0FBFC644815
:103A30006946006800E04FE021F00BFA03208DF8A2
:103A4000080060480123002202A9006825F0AEFAB0
:103A500053485AA190F90020684602F0E3FC5A4806
:103A60006946006821F0F5F94E484B4657A190F998
:103A70000020684602F0D6FC56486946006821F0EE
:103A8000E8F94A4854A1B0F90020684602F0CAFC9F
:103A900053486946006821F0DCF9524890F900105B
:103AA000B9420ED0322F0CD9782F0AD27AB20270D6
:103AB00042A1684602F0B6FC4B486946006821F016
:103AC000C8F94FB953223DA1684602F0ABFC464805
:103AD0006946006821F0BDF995F83000274605EBEE
:103AE000C00151E9020280EA0B007A40104332D152
:103AF00001F0BCF9421E8AF80000632A01D8024690
:103B000002E03A468AF8007029A1684602F08AFC71
:103B100036486946D0F8DC001BF076F9012E04D057
:103B2000022E0BD0032E10D004E0324830A10068E2
:103B300021F08FF9761C042E0CD00CE02D482EA11C
:103B4000006821F086F9032605E02A482BA10068C9
:103B500021F07FF901264FF47A7025F08DF9DFE628
:103B6000B5C2020860540020C1BE0208B50400209E
:103B700003000020BA04002002000020840100207D
:103B800068725F74656D70203D25640D0A00000049
:103B900000000020000020C1000048420000C84290
:103BA000B6040020B704002001000020BC0400205F
:103BB0002532642525000000DC0400202564000077
:103BC000D804002080010020C8040020256425635B
:103BD00000000000CC0400203A25646D00000000C5
:103BE000D0040020B8040020D404002034070020B2
:103BF0002E000000080700202E2E00002E2E2E0082
:103C000010B5002205E000BF50F82240521C2344AA
:103C1000D2B28A42F8D3B3FBF1F010BD10B586B032
:103C2000044614216846FCF78BFB20890090012094
:103C3000019002900220039069462068FDF796FFEC
:103C40006089009069466068FDF790FF06B010BD7E
:103C500070B506460824002501F0CAFA13E068068C
:103C6000050E0021304601F0B1FA022006F011FFE6
:103C70000121304601F0AAFA012006F00AFF304681
:103C800001F0ADFA0543641EE4B2E8D200213046EB
:103C900001F09CFA304601F0C9FA284670BD10B513
:103CA0000446002101F0B9FA012006F0F2FE0121DC
:103CB000204601F08BFA012006F0EBFE00212046A1
:103CC00001F084FABDE81040012006F0E2BE0000D9
:103CD00070B50C460646082519E000BF01F076FADB
:103CE000022006F0D6FE04F08001304601F095FA7D
:103CF000012006F0CEFE6006040E012006F0C9FE8B
:103D00000121304601F062FA012006F0C2FE6D1E6C
:103D1000EDB24FF000013046E0D201F057FABDE8B5
:103D20007040022006F0B5BE10B50446012101F036
:103D300074FA012006F0ADFE0121204601F046FA9A
:103D4000012006F0A6FE0021204601F03FFABDE862
:103D50001040022006F09DBE10B50446012101F07E
:103D60005CFA022006F095FE0121204601F02EFAB1
:103D7000012006F08EFE0021204601F04EFA0120BF
:103D800006F087FE0021204601F020FABDE8104031
:103D9000012006F07EBE10B50446002101F016FA9F
:103DA000022006F076FE0021204601F036FA0120BE
:103DB00006F06FFE0121204601F008FA012006F00E
:103DC00068FE0121204601F028FABDE810400120DC
:103DD00006F05FBE70B50546052401F009FA012121
:103DE000284601F0F3F905E0641EA4B2012006F0B4
:103DF00050FE84B1284601F0F2F90028F4D128469B
:103E000001F014FA0021284601F0E0F9022006F042
:103E100040FE002070BD284601F008FA2846FFF752
:103E2000BAFF012070BD00002DE9F0411D46174684
:103E30000C468046069EFFF78FFF6006010E404647
:103E4000FFF746FF4046FFF7C5FF28B14046FFF7A2
:103E5000A2FF0120BDE8F08139464046FFF738FF58
:103E60004046FFF7B7FF4046FFF776FF012000EB23
:103E70004400C1B24046FFF72BFF4046FFF7AAFFC0
:103E800000246F1E0AE000BFFFF7E2FE3055BC427F
:103E900002DA4046FFF703FF641CE4B2AC4240463E
:103EA000F2D3FFF741FF4046FFF775FF0020D1E74F
:103EB00070B516460C460546FFF74EFF6006010E2C
:103EC0002846FFF705FF2846FFF784FF31462846BE
:103ED000FFF7FEFE2846FFF77DFF2846FFF73CFF71
:103EE000012000EB4400C1B22846FFF7F1FE28464E
:103EF000FFF770FF2846FFF7ABFE04462846FFF7A2
:103F000013FF2846FFF747FF204670BD2DE9F0411B
:103F10001D4617460C468046069EFFF71DFF6006AD
:103F2000010E4046FFF7D4FE4046FFF753FF28B18D
:103F30004046FFF730FF0120BDE8F081394640469A
:103F4000FFF7C6FE4046FFF745FF002408E0315D5D
:103F50004046FFF7BDFE4046FFF73CFF641CE4B25D
:103F6000AC42F4D34046FFF716FF012006F091FD66
:103F70000020E1E72DE9F0411D4616460C460746B4
:103F8000FFF7EAFE6006010E3846FFF7A1FE38464D
:103F9000FFF720FF28B13846FFF7FDFE0120BDE8FE
:103FA000F08131463846FFF793FE3846FFF712FF9F
:103FB00029463846FFF78CFE3846FFF70BFF384698
:103FC000FFF7E9FE012006F064FD0020E7E70000AE
:103FD0001CB50024114D124E124FDFF84C808DF8A5
:103FE00000408DF80440012300226946286824F02F
:103FF0007FFF10B9052000F0AFFA0123002201A9CC
:10400000306824F075FF20B97C8098F8000000F03B
:10401000A3FA0A2024F030FFE5E700007401002035
:104020007C010020880100200D06002038B5144CCA
:1040300000256088401C80B26080217801EB8101FE
:10404000B0EB410F08D10F488DF80050012300223A
:104050006946006824F0AAFF6078618800EB800060
:10406000B1EB400F0AD101208DF80000034606484D
:10407000658000226946006824F098FF38BD000082
:104080008801002074010020780100200EB5002472
:10409000194D1A4E8DF800408DF808408DF80440F7
:1040A000002000F063F801280ED002281AD114482D
:1040B000144A90F8301000EBC10151E90201504060
:1040C0006140084312D002208DF800000123002235
:1040D0006946286824F06AFF0123002201A930689C
:1040E00024F064FF012024F0C7FED9E7064801232D
:1040F000002202A90068F3E7700100207C01002083
:1041000060540020B5C2020878010020012211028B
:104110000148FDF728BE00000000024070B586B0DF
:1041200014216846FCF70CF90E480025016841F09F
:104130000101016000680C4E00F001004FF4807432
:1041400005902A4621463046FDF70DFE0121CDE9B6
:104150000041CDE9021569463046FDF707FD06B07E
:1041600070BD000030380240000002402DE9F041EF
:1041700000241B4D1B4E012708B12F7001E0287849
:10418000E0B120213046FDF7E1FD20B1102130469D
:10419000FDF7DCFD90B1032024F06EFE20213046B7
:1041A000FDF7D4FD40B110213046FDF7CFFD98B1A9
:1041B0000224002028700FE00124FAE7032024F0F5
:1041C0005BFE20213046FDF7C1FD28B110213046AD
:1041D000FDF7BCFD00B92F702046BDE8F08100005E
:1041E000A40000200000024030B587B014216846CA
:1041F000FCF7A6F818480024016841F001010160AD
:104200000068164D00F001000590202000904FF44A
:10421000041001900120029069462846FDF7A6FC93
:10422000102000904FF48810CDE90104694628461B
:10423000FDF79CFC002211461720FDF731FE1720E8
:10424000FDF720FE002211460A20FDF729FE0A2074
:10425000FDF718FE07B030BD3038024000000240C4
:104260002DE9F04104461D4616460F462A2000F06F
:1042700037FA204600F024FA304600F021FA2B20CD
:1042800000F02EFA384600F01BFA284600F018FA23
:10429000BDE8F0412C2000F023BA000002490020C4
:1042A0000968C863704700006C09002070B55D1A8A
:1042B000141A641C6D1C143314316C439BB289B204
:1042C000049EFFF7CDFF0D4D4FF40060E8602868B5
:1042D000016841F400610160A2B231462846FEF750
:1042E00013FD0748006841680029FCD10020E86000
:1042F0002868016821F40061016070BDB4080020E5
:104300000C09002010B514460B460246FFF7A8FF23
:104310002046BDE8104000F0D3B92DE9F0478046B3
:104320001F4603F1130083B21646501E82B20C469C
:1043300001F1140081B24046DDF82090FFF790FFB4
:104340000AE0454604E0484600F0BAF96D1CADB2FB
:10435000B542F8D3641CA4B2BC42F2D3BDE8F087E6
:1043600030B587B014216846FBF7EAFF0D480168B5
:1043700041F00201016000684FF4607400F0020037
:1043800005900120CDE900400320074D03906946C8
:104390002846FDF7EBFB012221462846FDF7E3FC0A
:1043A00007B030BD303802400004024010B5FFF7BE
:1043B000D7FF684C00224FF480712046FDF7D3FCF4
:1043C000002280212046FDF7CEFC642006F054FB3D
:1043D000012280212046FDF7C6FC642006F04CFB3C
:1043E000112000F07DF9782006F046FB362000F021
:1043F00077F9002000F08AF93A2000F071F90520E1
:1044000000F084F9B22000F06BF90C2000F07EF986
:104410000C2000F07BF9002000F078F9332000F048
:1044200075F9332000F072F9B72000F059F9352002
:1044300000F06CF9BB2000F053F9192000F066F988
:10444000C02000F04DF92C2000F060F9C22000F0EF
:1044500047F9012000F05AF9C32000F041F9122079
:1044600000F054F9C42000F03BF9202000F04EF990
:10447000C62000F035F90F2000F048F9D02000F0F8
:104480002FF9A42000F042F9A12000F03FF9E0202C
:1044900000F026F9D02000F039F9042000F036F9B8
:1044A0000D2000F033F9112000F030F9132000F056
:1044B0002DF92B2000F02AF93F2000F027F9542095
:1044C00000F024F94C2000F021F9182000F01EF92A
:1044D0000D2000F01BF90B2000F018F91F2000F050
:1044E00015F9232000F012F9E12000F0F9F8D020AE
:1044F00000F00CF9042000F009F90C2000F006F996
:10450000112000F003F9132000F000F92C2000F036
:10451000FDF83F2000F0FAF8442000F0F7F85120B1
:1045200000F0F4F82F2000F0F1F81F2000F0EEF872
:104530001F2000F0EBF8202000F0E8F8232000F026
:10454000E5F8212000F0CCF8BDE81040292000F06B
:10455000C7B8000000040240411F5F2909D84FF48A
:10456000967110FB01F06421B0FBF1F0014909687C
:10457000C86370476C0900202DE9FF4F81B00446E5
:10458000DDF83C9000904FEA59074FF0000878079B
:1045900000D0012000EBD70000FB09FB203AD0B28D
:1045A0000390029802994844401E83B2E019401ECD
:1045B00082B22046FFF754FE002553E0B9F10C0FFC
:1045C0002AD0B9F1100F2ED0B9F1180F2ED0B9F1B1
:1045D000200F49D12749039801EB8010002610F8DD
:1045E00005A0109800284FF0010000FA06F000EA3C
:1045F0000A0022D020B12046049A0299FFF782FED9
:10460000641C0098A4B2201AB84225D10298009CDC
:10461000401C80B2029023E00398174900EB400051
:1046200001EB8000DAE71549039803E00398144989
:1046300000EB400001EB0010D0E708B1049800E067
:104640000E9800F03DF808F10100C0B2B0FBF7F1A0
:10465000804607FB118050B1761CF6B2082EC0D3FD
:104660006D1CADB25D45A9D305B0BDE8F08F4FF02C
:104670000008F5E74C3F0308182303088C270308BC
:104680007C2D03082DE9FE4F9946DDE90D671446A0
:104690008A460546DDF830800CE0CDF800804B46B8
:1046A00051462846CDE90167FFF766FF05EB560046
:1046B00085B2641C2278002AEFD1BDE8FE8F00008D
:1046C00008B5010A8DF800108DF8010001230222BF
:1046D00069460248FEF764FA08BD0000B4080020ED
:1046E00070B5094D06464FF4007400222146284655
:1046F000FDF739FB304600F009F821462846BDE8B1
:1047000070400122FDF72FBB0004024001B50123D8
:104710001A4669460148FEF743FA08BDB40800206E
:1047200008B50020094C8DF80000002014F0E6FACE
:10473000FA2805D200231A466946206824F036FC80
:1047400022F0CCFB012024F097FBEEE77C01002057
:1047500008B50127DFF86480194EDFF86890DFF8AC
:1047600068A01A4D00244FF4967B687808B300F0D7
:1047700011F908B12F701CE02878012818D12C708D
:1047800096F8300006EBC00050E9021081EA0802FA
:1047900080EA04031A4304D081EA0901604001431E
:1047A00006D1012300226946DAF8000024F0FEFB5E
:1047B0002C70584624F060FBD7E70000B5C2020811
:1047C00060540020B1AA0208780100208C0100206A
:1047D000064882B0016841F002010160006800F003
:1047E00002000090024802B0FFF718BA30380240C9
:1047F000F80000207CB514460D4606466B4606229E
:104800003B21682000F048F800280BD1BDF80010CB
:1048100049BA3180BDF8021049BA2980BDF80410A8
:1048200049BA21807CBD3EB50C46054601AA6946C1
:1048300002A8FFF7DFFFBDF8000010FB00F1BDF894
:10484000040010FB001000EE100AB8EEC00A02F0DF
:1048500003FABDF90800F0EE400A00EE100AB8EEC7
:10486000C01A81EE200A01F015FEB1EE400A84ED77
:10487000000ABDF9000000EE100ABDF90400F8EED0
:10488000C00A00EE100AB8EEC01A80EE810A01F0EC
:1048900001FE85ED000A3EBD2DE9F04106461D46AC
:1048A00014460F462048FFF757FA7006010E1E48BF
:1048B000FFF70EFA1C48FFF78DFA28B11A48FFF7E8
:1048C0006AFA0120BDE8F08139461748FFF700FA7F
:1048D0001548FFF77FFA1448FFF73EFA012000EB76
:1048E0004600C1B21048FFF7F3F90F48FFF772FA1C
:1048F0000BE00D48012C0FD0FFF7AAF928700A48E9
:10490000FFF7CDF9641EE4B26D1C002CF1D106480E
:10491000FFF741FA0020D5E7FFF79AF9287002481F
:10492000FFF702FAEEE70000F80000202DE9F04161
:1049300004461E4615460F461548FFF70DFA600659
:10494000010E1348FFF7C4F91148FFF743FA80B985
:1049500039460F48FFF7BCF90D48FFF73BFA002432
:104960000FE0315D0A48FFF7B3F90948FFF732FA63
:1049700028B10748FFF70FFA0120BDE8F081641C59
:10498000E4B2AC42EDD30248FFF705FA0020F4E7A9
:10499000F80000201CB501A96846FFF744FF009805
:1049A0004FF07C5188420ADC4FF03F42904206D8DB
:1049B0000198884203DC904201D801201CBD0020F0
:1049C0001CBD00007FB5002415480094019402949A
:1049D0001249039401604FF48031C0E9011404616D
:1049E000047680F820400F49C0E90A140125C5610A
:1049F000C46080F830404561FCF795FD08B1FCF7D4
:104A0000B1FC0095CDE9015469460548FCF7D6FC98
:104A1000002801D0FCF7A6FC7FBD0000002001406B
:104A20004C0800200100000F114808B5016841F44E
:104A3000800101600068002200F4800000900521E0
:104A40003A20FDF72DFA3A20FDF71CFA0022052145
:104A50004420FDF725FA4420FDF714FA0022052131
:104A60004620FDF71DFABDE808404620FDF70ABACA
:104A70003038024010B501F0EFFB0B4A00210B4823
:104A800024F0C8FA0A4C084A002160602432094820
:104A900024F0C0FA044AA060243A0021064824F019
:104AA000B9FA206010BD0000B022030821470008B9
:104AB000040000208D4000085D5600080D4808B530
:104AC000016841F004010160016801F004010091F6
:104AD000016841F001010160016801F001010091EC
:104AE000016841F002010160006800F002000090DE
:104AF00008BD00003038024010B586B01421684669
:104B0000FBF71EFC2348002421490594C0E900144A
:104B10007F218160FF21C0E9031444618461FDF7B6
:104B20005BFE08B1FCF71EFC11208DF80000592037
:104B30008DF8010055208DF802000394012269468A
:104B400014480494FDF700FF08B1FCF70BFC0720A4
:104B50008DF8140005208DF8150021208DF8160021
:104B600023208DF81700012205A90A48FDF7A0FEB1
:104B700008B1FCF7F7FB00224FF4FA610548FDF796
:104B800049FD002801D0FCF7EDFB06B010BD000088
:104B90000028004094080020104810B50E4901601C
:104BA0004FF482714160002102228160C0E903124A
:104BB000012242615202C0E9062101624162816222
:104BC0000A21C162FDF73CFF002803D0BDE8104078
:104BD000FCF7C8BB10BD000000300140B408002045
:104BE00010B58AB0002407941C2168460894FBF78E
:104BF000A7FB1648144901606321C0E901144FF472
:104C00009671C0E903148461FEF7F3FA08B1FCF76A
:104C1000A9FB079407A90D480894FEF705F908B108
:104C2000FCF7A0FB6020CDE900040294082269464D
:104C300006480494FEF777FA08B1FCF793FB0348A3
:104C4000FEF748FA0AB010BD000400406C090020CD
:104C50000C4810B50A4901604FF4E1314160002170
:104C600081600C22C160C0E904128161C161FEF75C
:104C7000D5FC002803D0BDE81040FCF773BB10BD85
:104C800000100140B4090020FEE7000086B03F4E4E
:104C900000254FF47A773078002873D03C4835707F
:104CA0008DF804500123002201A9006824F07EF948
:104CB000384939A001F0A6FB3AA13648FBF75EFB64
:104CC00078B139A13348FBF759FB60B139A13148BC
:104CD000FBF754FB58B12F48FBF749FB14283BD096
:104CE0004CE036A000E037A001F08CFB46E0394CE8
:104CF0000022211D3848FDF745FD00222146364897
:104D0000FDF71EFD3548007820763548007860763E
:104D100034480078A07634480088A083A27861786F
:104D200032A001F06FFBA3796279217933A001F001
:104D300069FB94F9181037A001F064FB94F919107D
:104D400038A001F05FFBA17E3BA001F05BFBA18BD3
:104D50003EA001F057FB11E00295039502A90D4812
:104D6000049500F00FFD3D49012008703CA102A808
:104D7000FBF704FB10B9074800F0D4FE19210548E1
:104D8000FBF7DEFA384624F077F884E710000020BD
:104D90007C010020B80A00205265635374723A25E2
:104DA000730D0A004F5600004F562B56455253497B
:104DB0004F4E00004F562B53454E44004F4B0D0AAB
:104DC0000000000056455253494F4E3D56312E309B
:104DD0000D0A00009854002094080020B704002019
:104DE000B6040020B8040020BA0400206461746195
:104DF0003A2532642D253032640D0A0074696D65E0
:104E00003A253032643A253032643A253032640D26
:104E10000A00000068756D69646974793A25642533
:104E2000250D0A0074656D70657261747572653A5E
:104E300025640D0A0000000048656172742052610B
:104E400074653A256425250D0A00000053746570C9
:104E500020746F6461793A25640D0A009E03002076
:104E60004F562B5354000000FEE7000070B5FBF7CF
:104E7000B3FE10EE104AFCF7DFF858B12046FBF7FE
:104E8000C7FB9FED2A1B53EC112BFBF73CFBFBF7F9
:104E9000D2FB04462748844201DD642544E02648CD
:104EA00026492044884201D85A253DE0244821184B
:104EB0002448814201D8502536E02349621823490D
:104EC0008A4201D246252FE0214A2244824201D261
:104ED0003C2529E01F481B4A2044521E904201D81D
:104EE000322521E01C481D4A2044904201D8282543
:104EF0001AE01B481B4A2044904201D81E2513E0AB
:104F00001948164A2044521C904201D814250BE03F
:104F100016482044884201D20A2505E01448154964
:104F20002044884200D20525284670BDFCA9F1D254
:104F30004D62C03F666686407A147EBFE07A040008
:104F4000AE4781BF33330300B81E85BF0AD70300C5
:104F5000EB5188BF1E858BBFA3708DBF84EB010012
:104F600051B88EBFAD470100D7A390BFE17A94BF7F
:104F70003333A3BF52B80E00012208210148FCF7C9
:104F8000F2BE00000000024010B500F005F8BDE8D8
:104F90001040FFF7F1BF000030B587B0142168461C
:104FA000FBF7CEF916480024016841F001010160C9
:104FB0000068144D00F001000590224608212846A3
:104FC000FCF7D1FE082000900120CDE901046946DC
:104FD00028460394FCF7CAFD042000904FF44410C7
:104FE000CDE9010469462846FCF7C0FD00221146C0
:104FF0000820FCF755FF0820FCF744FF07B030BD40
:10500000303802400000024010B52DED028BFCF755
:10501000C0F900EE100ADFED240AB8EEC00A20EE57
:10502000208AFCF7A1F900EE100A9FED201A204813
:10503000B8EEC00AB0F90810C0EE010A00EE101A6E
:10504000B0F90C1001EE101AB8EEC00AB0F9041055
:10505000B8EEC11A00EE810A90ED051A28EE202A5A
:10506000B8EEC11A00EE801A90ED040AB8EEC00A3C
:1050700000EE810A01EE101AB0F90610B0F90A002C
:10508000B8EEC11A01EE900A08EE010A01EE101AFC
:10509000F8EEE11ABDEC028BB8EEC11A00EEA11ACF
:1050A00002EE010A10BD0000000000360000C049F9
:1050B000D4000020010901EB810100F00F0000EB9A
:1050C0004100C0B27047002103E0491C0A38C9B250
:1050D000C0B20A28F9D2090740EA116070470000FF
:1050E0002DE9F041044600680025C168490618D43E
:1050F000C16841F08001C160FCF73AFE06464FF4FA
:105100007A78042707E000BFFCF732FE801B404599
:1051100001D9677701252068C068400601D4002DB9
:10512000F2D02846BDE8F08170B50446006800253D
:10513000C16821F08001C16020688068800606D4C3
:105140002046FDF761FC10B1042060770125284658
:1051500070BD000008B5002300938DF802208DF883
:1051600001108DF8030014232CF0A6FA8DF800002E
:10517000002269460348FDF79BFB002801D0FCF79D
:10518000F1F808BD9408002070B586B00D460646BB
:10519000144614216846FBF7D3F88DF800608DF8AB
:1051A00001508DF80240002269460448FDF7CCFB0F
:1051B000002801D0FCF7D6F806B070BD9408002096
:1051C0000148FDF7A3BA0000940800204289406816
:1051D00011B18169114300E011048161704710B57C
:1051E00001890068FCF7B2FD012800D0002010BD45
:1051F00010B586B0044614216846FBF7A1F8208953
:105200000090002001900120029002200390694646
:105210002068FCF7ABFC06B010BD0289006811B134
:105220008169114300E011048161704710B586B0B7
:10523000044614216846FBF783F82089009011206A
:105240000190002002900220039069462068FCF73C
:105250008DFC06B010BD10B5806B01684A6822F065
:1052600003024A60416D41F010014165012180F85F
:105270005110FDF7E4FB10BD10B5806BFDF7B1FDDB
:1052800010BD38B50546846BFCF772FD02462868F0
:105290000068C00523D42068416821F020014160E6
:1052A0002068416821F0020141606421204600F03D
:1052B0001BF818B1606D40F020006065A068002107
:1052C00018B92068C26880680090E186012084F8DF
:1052D0005100606D18B12046FDF7B1FB38BD204686
:1052E000FDF77EFD38BD000038B504461248134B6B
:1052F0000068B0FBF3F04FF47A7358430090606895
:10530000B0F5827F0DD10B4600920022802120460D
:1053100000F016F870B1606D40F020006065032069
:1053200038BD009830B1401E009020688068C043AE
:105330000006F6D5002038BD2000002000366E01A2
:105340002DE9F8431E46914688460446089DFCF721
:105350000FFD401B351AFCF70BFD0746254800687A
:10536000C0F3CB30684338E0701C37D0FCF700FD49
:10537000C01BA84203D215B1009860B32CE020688E
:10538000416821F0E00141606068B0F5827F0BD197
:10539000A068B0F5004F02D0B0F5806F04D120684E
:1053A000016821F040010160A06AB0F5005F09D1F9
:1053B0002068016821F4005101602068016841F40F
:1053C00000510160012084F85100002084F8500051
:1053D0000320BDE8F8830025401E00902068816806
:1053E00038EA010004D000214945BDD10020F0E792
:1053F0000121F9E720000020024676210148FEF74E
:1054000057BD0000EC0000200B4602467621014803
:10541000FEF7B0BDEC00002038B52248016841F02D
:1054200002010160006800F0020000901E48FEF7D3
:10543000F5FB01210620FFF7E7FF80210720FFF79A
:10544000E3FF07210820FFF7DFFF00210920FFF716
:10545000DBFF0DF0DBFE144C183C20800DF00EFF3E
:1054600060800DF0FFFEA0800DF034FFE0800DF0B5
:105470003DFF20810DF046FF60810DF04FFFA081C0
:105480000DF0D6FE20610DF00BFF60610620FFF7E6
:10549000B3FF012804D10920FFF7AEFF002800D098
:1054A000012038BD30380240EC0000201CB500243B
:1054B0004F4D8DF804402A4623464E482BF020FEDF
:1054C0004D4FDFF83891DFF82CA1DFF83481012649
:1054D00000231A4601A9386823F00AFD002805D1E7
:1054E0009DF80400012802D002286AD07CE04148DF
:1054F0002BF0F6FD3F482BF013FE88B1404825F015
:10550000D7FA009600231A460321D8F870001FF03E
:10551000CFF82A46002337482BF0F2FD4A465FE0D9
:105520009AF8301022460AEBC10151E9020180EAE3
:10553000050381EA020C53EA0C031AD080EA09033E
:1055400081EA020C53EA0C031AD02E4B81EA020CBA
:10555000434053EA0C031FD02B4B81EA020C43401B
:1055600053EA0C031FD0294B61405840084321D017
:105570003AE0234826F09EFE0096D8F8000005E0A9
:105580001F4825F095FA0096D8F8700000231A46B7
:1055900003211FF08DF827E0194828F01DFA009626
:1055A000D8F80801F2E7164828F052FB0096D8F820
:1055B000EC00EBE7124828F0BDFD0096D8F8E000BB
:1055C000E4E70C482BF080FD0D4826F073FE0096B2
:1055D00000231A460321D8F800001FF069F82A4674
:1055E000002304482BF08CFD0A2023F045FC6FE7D4
:1055F000B5C202086054002070010020B1AA020860
:1056000034070020D9D9020851DC020835E102082C
:1056100070B514460D460646FBF7CFFD08B10120D4
:1056200070BD0A2005F028FA324621462846FBF7CD
:10563000BBFA002070BD70B514460D460646FBF758
:10564000BCFD08B1012070BD0A2005F015FA3246F4
:1056500021462846FBF7B4FA002070BD012023F054
:105660000BFCFBE708B500273C4E3C463C480023BA
:105670001A466946006823F03BFC002867D1DFF832
:10568000E490DFF8E4B04FF0E0284FF47A7A7480C9
:10569000002280213548FCF766FBFEF7FFFDFBF793
:1056A00057FBFBF7E1FD2BF025FF00F06DFED8F86E
:1056B0001000454620F00200C8F81000012100202B
:1056C000FCF720FC286940F00200286199F80000EE
:1056D000DBF80010BAFBF0F0B1FBF0F0FDF78EFB49
:1056E00000F066F800F060FE2CF0BCFC204800786A
:1056F00060B1FFF74FF900281E48017804D029B99E
:10570000012101700F4601E001290BD01A4D202123
:105710002846FCF71BFB58B110212846FCF716FB66
:1057200030B901E0047016E01448007800B997B170
:105730000027FEF73BFE12480078FEF70DFFFBF74F
:105740000BFBFBF779FC10B10C49012008706420B9
:1057500023F092FB8AE7748099E70000880100201B
:1057600078010020140000202000002000040240E6
:105770008D0100208C01002000000240120000205A
:105780000D060020002202E08B54521CD2B2835C32
:105790003D2BF9D1704710B54FF0E02000692CF097
:1057A00069FB012803D0BDE810402CF029B810BDDA
:1057B00030B593B030216846FAF7C2FD14210CA829
:1057C000FAF7BEFD1D480024016841F080510160D8
:1057D000006800F0805011901948016841F4404180
:1057E00001600068022500F44040119006200090FE
:1057F0000120029003901020049006950820CDE926
:1058000007406420CDE9090504200B906846FCF7A9
:105810004BFD08B172B6FEE70F20CDE90C054FF441
:105820008050CDE90E4003210CA81094FCF730FC09
:10583000002801D072B6FEE713B030BD40380240F8
:10584000007000400248016841F470010160704737
:1058500088ED00E00148FDF78ABB0000D40A002073
:10586000F0B502681D4B1E4C9F031E4D1E4E984204
:1058700007D0B84205D0A04203D0A84201D0B04220
:1058800004D122F0700C4A6842EA0C02984210D00F
:10589000B8420ED0A0420CD0A8420AD0B04208D0E4
:1058A000124CA04205D0124CA04202D0114CA04292
:1058B00003D122F44074CA6822434C6922F080026A
:1058C000224302608A68C2620A688262984201D1F9
:1058D0000969016301214161F0BD00000000014040
:1058E0000004004000080040000C0040004001405F
:1058F000004401400048014010B501F01F030121A0
:10590000046A99408C430462016A9A40114301621F
:1059100010BD000030B5026A22F001020262026A84
:105920004368846924F073050C682C4322F0020557
:105930008A682A430A4DA8420BD122F00805CA689A
:1059400023F440732A434D6922F004021D438B69FE
:105950002B434360846149684163026230BD0000AB
:105960000000014030B5026A22F010020262026AB1
:10597000436884690D6824F4E64444EA05248D688C
:1059800022F0200242EA05120B4DA8420ED1CD684A
:1059900022F0800242EA05124D6923F4406343EA93
:1059A00085038D6922F0400243EA850343608461E8
:1059B00049688163026230BD0000014030B5026A6F
:1059C00022F480720262036A4268C46923F400739D
:1059D00024F073050C682C438D6843EA05230C4DB5
:1059E000A8420ED1CD6823F4006343EA05234D6934
:1059F00022F4405242EA05128D6923F4806342EAA0
:105A000005124260C4614968C163036230BD000091
:105A10000000014030B5026A22F480520262046A3A
:105A20004268C3690D6823F4E64343EA05238D68A1
:105A300024F4005444EA0534064DA84204D14D69CB
:105A400022F4804242EA85124260C36149680164DF
:105A5000046230BD000001402DE9FF41012021F02A
:105A600091F924480078E0B3234F244C002638787D
:105A7000401CC0B238700A2803D33E702078401C06
:105A8000207020781E4D64280CD3267028780023BF
:105A9000401C28701B488DF800601A466946806BD0
:105AA00023F084FA297818483C2903D32E70017812
:105AB000491C017001783C2900D30670397803290C
:105AC00003D0062901D009290ED12178009102784E
:105AD0002B780EA101A800F0A5FC104801A90068D0
